{
  "address": "0xA9121BBFc1964253D97156e2183CCc86335C6A8C",
  "abi": [
    {
      "inputs": [],
      "stateMutability": "nonpayable",
      "type": "constructor"
    },
    {
      "anonymous": false,
      "inputs": [
        {
          "indexed": true,
          "internalType": "address",
          "name": "owner",
          "type": "address"
        },
        {
          "indexed": true,
          "internalType": "address",
          "name": "approved",
          "type": "address"
        },
        {
          "indexed": true,
          "internalType": "uint256",
          "name": "tokenId",
          "type": "uint256"
        }
      ],
      "name": "Approval",
      "type": "event"
    },
    {
      "anonymous": false,
      "inputs": [
        {
          "indexed": true,
          "internalType": "address",
          "name": "owner",
          "type": "address"
        },
        {
          "indexed": true,
          "internalType": "address",
          "name": "operator",
          "type": "address"
        },
        {
          "indexed": false,
          "internalType": "bool",
          "name": "approved",
          "type": "bool"
        }
      ],
      "name": "ApprovalForAll",
      "type": "event"
    },
    {
      "anonymous": false,
      "inputs": [
        {
          "indexed": true,
          "internalType": "address",
          "name": "previousOwner",
          "type": "address"
        },
        {
          "indexed": true,
          "internalType": "address",
          "name": "newOwner",
          "type": "address"
        }
      ],
      "name": "OwnershipTransferred",
      "type": "event"
    },
    {
      "anonymous": false,
      "inputs": [
        {
          "indexed": true,
          "internalType": "address",
          "name": "from",
          "type": "address"
        },
        {
          "indexed": true,
          "internalType": "address",
          "name": "to",
          "type": "address"
        },
        {
          "indexed": true,
          "internalType": "uint256",
          "name": "tokenId",
          "type": "uint256"
        }
      ],
      "name": "Transfer",
      "type": "event"
    },
    {
      "inputs": [
        {
          "internalType": "address",
          "name": "minter",
          "type": "address"
        }
      ],
      "name": "addMinter",
      "outputs": [],
      "stateMutability": "nonpayable",
      "type": "function"
    },
    {
      "inputs": [
        {
          "internalType": "address",
          "name": "to",
          "type": "address"
        },
        {
          "internalType": "uint256",
          "name": "tokenId",
          "type": "uint256"
        }
      ],
      "name": "approve",
      "outputs": [],
      "stateMutability": "nonpayable",
      "type": "function"
    },
    {
      "inputs": [
        {
          "internalType": "address",
          "name": "owner",
          "type": "address"
        }
      ],
      "name": "balanceOf",
      "outputs": [
        {
          "internalType": "uint256",
          "name": "",
          "type": "uint256"
        }
      ],
      "stateMutability": "view",
      "type": "function"
    },
    {
      "inputs": [
        {
          "internalType": "uint256",
          "name": "tokenId",
          "type": "uint256"
        }
      ],
      "name": "getApproved",
      "outputs": [
        {
          "internalType": "address",
          "name": "",
          "type": "address"
        }
      ],
      "stateMutability": "view",
      "type": "function"
    },
    {
      "inputs": [
        {
          "internalType": "address",
          "name": "owner",
          "type": "address"
        },
        {
          "internalType": "address",
          "name": "operator",
          "type": "address"
        }
      ],
      "name": "isApprovedForAll",
      "outputs": [
        {
          "internalType": "bool",
          "name": "",
          "type": "bool"
        }
      ],
      "stateMutability": "view",
      "type": "function"
    },
    {
      "inputs": [
        {
          "internalType": "string",
          "name": "tokenURI_",
          "type": "string"
        },
        {
          "internalType": "uint256",
          "name": "zodiacId",
          "type": "uint256"
        }
      ],
      "name": "mint",
      "outputs": [],
      "stateMutability": "nonpayable",
      "type": "function"
    },
    {
      "inputs": [
        {
          "internalType": "address",
          "name": "",
          "type": "address"
        }
      ],
      "name": "minters",
      "outputs": [
        {
          "internalType": "bool",
          "name": "",
          "type": "bool"
        }
      ],
      "stateMutability": "view",
      "type": "function"
    },
    {
      "inputs": [],
      "name": "name",
      "outputs": [
        {
          "internalType": "string",
          "name": "",
          "type": "string"
        }
      ],
      "stateMutability": "view",
      "type": "function"
    },
    {
      "inputs": [],
      "name": "owner",
      "outputs": [
        {
          "internalType": "address",
          "name": "",
          "type": "address"
        }
      ],
      "stateMutability": "view",
      "type": "function"
    },
    {
      "inputs": [
        {
          "internalType": "uint256",
          "name": "tokenId",
          "type": "uint256"
        }
      ],
      "name": "ownerOf",
      "outputs": [
        {
          "internalType": "address",
          "name": "",
          "type": "address"
        }
      ],
      "stateMutability": "view",
      "type": "function"
    },
    {
      "inputs": [
        {
          "internalType": "address",
          "name": "minter",
          "type": "address"
        }
      ],
      "name": "removeMinter",
      "outputs": [],
      "stateMutability": "nonpayable",
      "type": "function"
    },
    {
      "inputs": [],
      "name": "renounceOwnership",
      "outputs": [],
      "stateMutability": "nonpayable",
      "type": "function"
    },
    {
      "inputs": [
        {
          "internalType": "address",
          "name": "from",
          "type": "address"
        },
        {
          "internalType": "address",
          "name": "to",
          "type": "address"
        },
        {
          "internalType": "uint256",
          "name": "tokenId",
          "type": "uint256"
        }
      ],
      "name": "safeTransferFrom",
      "outputs": [],
      "stateMutability": "nonpayable",
      "type": "function"
    },
    {
      "inputs": [
        {
          "internalType": "address",
          "name": "from",
          "type": "address"
        },
        {
          "internalType": "address",
          "name": "to",
          "type": "address"
        },
        {
          "internalType": "uint256",
          "name": "tokenId",
          "type": "uint256"
        },
        {
          "internalType": "bytes",
          "name": "_data",
          "type": "bytes"
        }
      ],
      "name": "safeTransferFrom",
      "outputs": [],
      "stateMutability": "nonpayable",
      "type": "function"
    },
    {
      "inputs": [
        {
          "internalType": "address",
          "name": "operator",
          "type": "address"
        },
        {
          "internalType": "bool",
          "name": "approved",
          "type": "bool"
        }
      ],
      "name": "setApprovalForAll",
      "outputs": [],
      "stateMutability": "nonpayable",
      "type": "function"
    },
    {
      "inputs": [
        {
          "internalType": "bytes4",
          "name": "interfaceId",
          "type": "bytes4"
        }
      ],
      "name": "supportsInterface",
      "outputs": [
        {
          "internalType": "bool",
          "name": "",
          "type": "bool"
        }
      ],
      "stateMutability": "view",
      "type": "function"
    },
    {
      "inputs": [],
      "name": "symbol",
      "outputs": [
        {
          "internalType": "string",
          "name": "",
          "type": "string"
        }
      ],
      "stateMutability": "view",
      "type": "function"
    },
    {
      "inputs": [
        {
          "internalType": "uint256",
          "name": "index",
          "type": "uint256"
        }
      ],
      "name": "tokenByIndex",
      "outputs": [
        {
          "internalType": "uint256",
          "name": "",
          "type": "uint256"
        }
      ],
      "stateMutability": "view",
      "type": "function"
    },
    {
      "inputs": [
        {
          "internalType": "address",
          "name": "owner",
          "type": "address"
        },
        {
          "internalType": "uint256",
          "name": "index",
          "type": "uint256"
        }
      ],
      "name": "tokenOfOwnerByIndex",
      "outputs": [
        {
          "internalType": "uint256",
          "name": "",
          "type": "uint256"
        }
      ],
      "stateMutability": "view",
      "type": "function"
    },
    {
      "inputs": [
        {
          "internalType": "uint256",
          "name": "tokenId",
          "type": "uint256"
        }
      ],
      "name": "tokenURI",
      "outputs": [
        {
          "internalType": "string",
          "name": "",
          "type": "string"
        }
      ],
      "stateMutability": "view",
      "type": "function"
    },
    {
      "inputs": [
        {
          "internalType": "uint256",
          "name": "",
          "type": "uint256"
        }
      ],
      "name": "tokenURIs",
      "outputs": [
        {
          "internalType": "string",
          "name": "",
          "type": "string"
        }
      ],
      "stateMutability": "view",
      "type": "function"
    },
    {
      "inputs": [],
      "name": "totalSupply",
      "outputs": [
        {
          "internalType": "uint256",
          "name": "",
          "type": "uint256"
        }
      ],
      "stateMutability": "view",
      "type": "function"
    },
    {
      "inputs": [
        {
          "internalType": "address",
          "name": "from",
          "type": "address"
        },
        {
          "internalType": "address",
          "name": "to",
          "type": "address"
        },
        {
          "internalType": "uint256",
          "name": "tokenId",
          "type": "uint256"
        }
      ],
      "name": "transferFrom",
      "outputs": [],
      "stateMutability": "nonpayable",
      "type": "function"
    },
    {
      "inputs": [
        {
          "internalType": "address",
          "name": "newOwner",
          "type": "address"
        }
      ],
      "name": "transferOwnership",
      "outputs": [],
      "stateMutability": "nonpayable",
      "type": "function"
    },
    {
      "inputs": [
        {
          "internalType": "uint256",
          "name": "",
          "type": "uint256"
        }
      ],
      "name": "zodiacIds",
      "outputs": [
        {
          "internalType": "uint256",
          "name": "",
          "type": "uint256"
        }
      ],
      "stateMutability": "view",
      "type": "function"
    }
  ],
  "transactionHash": "0xa27197f1b8496fda653f7781e987d2e980b7a3b2244f5cee6e47f3aa37d368db",
  "args": [],
  "solcInputHash": "d8f623204a656d784c512dc493f38eca",
  "bytecode": "0x60806040523480156200001157600080fd5b506040518060400160405280600a81526020017f435a6f646961634e4654000000000000000000000000000000000000000000008152506040518060400160405280600781526020017f435a6f6469616300000000000000000000000000000000000000000000000000815250816000908051906020019062000096929190620001a6565b508060019080519060200190620000af929190620001a6565b505050620000d2620000c6620000d860201b60201c565b620000e060201b60201c565b620002bb565b600033905090565b6000600a60009054906101000a900473ffffffffffffffffffffffffffffffffffffffff16905081600a60006101000a81548173ffffffffffffffffffffffffffffffffffffffff021916908373ffffffffffffffffffffffffffffffffffffffff1602179055508173ffffffffffffffffffffffffffffffffffffffff168173ffffffffffffffffffffffffffffffffffffffff167f8be0079c531659141344cd1fd0a4f28419497f9722a3daafe3b4186f6b6457e060405160405180910390a35050565b828054620001b49062000256565b90600052602060002090601f016020900481019282620001d8576000855562000224565b82601f10620001f357805160ff191683800117855562000224565b8280016001018555821562000224579182015b828111156200022357825182559160200191906001019062000206565b5b50905062000233919062000237565b5090565b5b808211156200025257600081600090555060010162000238565b5090565b600060028204905060018216806200026f57607f821691505b602082108114156200028657620002856200028c565b5b50919050565b7f4e487b7100000000000000000000000000000000000000000000000000000000600052602260045260246000fd5b61362780620002cb6000396000f3fe608060405234801561001057600080fd5b50600436106101735760003560e01c80636c8b703f116100de578063a22cb46511610097578063dc028f1211610071578063dc028f121461045a578063e985e9c51461048a578063f2fde38b146104ba578063f46eccc4146104d657610173565b8063a22cb465146103f2578063b88d4fde1461040e578063c87b56dd1461042a57610173565b80636c8b703f1461033057806370a0823114610360578063715018a6146103905780638da5cb5b1461039a57806395d89b41146103b8578063983b2d56146103d657610173565b806323b872dd1161013057806323b872dd1461024c5780632f745c59146102685780633092afd51461029857806342842e0e146102b45780634f6ccce7146102d05780636352211e1461030057610173565b806301ffc9a714610178578063056b01ce146101a857806306fdde03146101c4578063081812fc146101e2578063095ea7b31461021257806318160ddd1461022e575b600080fd5b610192600480360381019061018d9190612650565b610506565b60405161019f9190612abe565b60405180910390f35b6101c260048036038101906101bd91906126a2565b610580565b005b6101cc610667565b6040516101d99190612ad9565b60405180910390f35b6101fc60048036038101906101f791906126f6565b6106f9565b6040516102099190612a57565b60405180910390f35b61022c60048036038101906102279190612614565b61077e565b005b610236610896565b6040516102439190612d5b565b60405180910390f35b6102666004803603810190610261919061250e565b6108a3565b005b610282600480360381019061027d9190612614565b610903565b60405161028f9190612d5b565b60405180910390f35b6102b260048036038101906102ad91906124a9565b6109a8565b005b6102ce60048036038101906102c9919061250e565b610a7f565b005b6102ea60048036038101906102e591906126f6565b610a9f565b6040516102f79190612d5b565b60405180910390f35b61031a600480360381019061031591906126f6565b610b36565b6040516103279190612a57565b60405180910390f35b61034a600480360381019061034591906126f6565b610be8565b6040516103579190612ad9565b60405180910390f35b61037a600480360381019061037591906124a9565b610c88565b6040516103879190612d5b565b60405180910390f35b610398610d40565b005b6103a2610dc8565b6040516103af9190612a57565b60405180910390f35b6103c0610df2565b6040516103cd9190612ad9565b60405180910390f35b6103f060048036038101906103eb91906124a9565b610e84565b005b61040c600480360381019061040791906125d8565b610f5b565b005b6104286004803603810190610423919061255d565b6110dc565b005b610444600480360381019061043f91906126f6565b61113e565b6040516104519190612ad9565b60405180910390f35b610474600480360381019061046f91906126f6565b61122b565b6040516104819190612d5b565b60405180910390f35b6104a4600480360381019061049f91906124d2565b611243565b6040516104b19190612abe565b60405180910390f35b6104d460048036038101906104cf91906124a9565b6112d7565b005b6104f060048036038101906104eb91906124a9565b6113cf565b6040516104fd9190612abe565b60405180910390f35b60007f780e9d63000000000000000000000000000000000000000000000000000000007bffffffffffffffffffffffffffffffffffffffffffffffffffffffff1916827bffffffffffffffffffffffffffffffffffffffffffffffffffffffff191614806105795750610578826113ef565b5b9050919050565b600d60003373ffffffffffffffffffffffffffffffffffffffff1673ffffffffffffffffffffffffffffffffffffffff16815260200190815260200160002060009054906101000a900460ff1661060c576040517f08c379a000000000000000000000000000000000000000000000000000000000815260040161060390612cfb565b60405180910390fd5b6000610616610896565b905082600b6000838152602001908152602001600020908051906020019061063f9291906122cd565b5081600c60008381526020019081526020016000208190555061066233826114d1565b505050565b60606000805461067690612f75565b80601f01602080910402602001604051908101604052809291908181526020018280546106a290612f75565b80156106ef5780601f106106c4576101008083540402835291602001916106ef565b820191906000526020600020905b8154815290600101906020018083116106d257829003601f168201915b5050505050905090565b60006107048261169f565b610743576040517f08c379a000000000000000000000000000000000000000000000000000000000815260040161073a90612c5b565b60405180910390fd5b6004600083815260200190815260200160002060009054906101000a900473ffffffffffffffffffffffffffffffffffffffff169050919050565b600061078982610b36565b90508073ffffffffffffffffffffffffffffffffffffffff168373ffffffffffffffffffffffffffffffffffffffff1614156107fa576040517f08c379a00000000000000000000000000000000000000000000000000000000081526004016107f190612cdb565b60405180910390fd5b8073ffffffffffffffffffffffffffffffffffffffff1661081961170b565b73ffffffffffffffffffffffffffffffffffffffff16148061084857506108478161084261170b565b611243565b5b610887576040517f08c379a000000000000000000000000000000000000000000000000000000000815260040161087e90612bdb565b60405180910390fd5b6108918383611713565b505050565b6000600880549050905090565b6108b46108ae61170b565b826117cc565b6108f3576040517f08c379a00000000000000000000000000000000000000000000000000000000081526004016108ea90612d1b565b60405180910390fd5b6108fe8383836118aa565b505050565b600061090e83610c88565b821061094f576040517f08c379a000000000000000000000000000000000000000000000000000000000815260040161094690612afb565b60405180910390fd5b600660008473ffffffffffffffffffffffffffffffffffffffff1673ffffffffffffffffffffffffffffffffffffffff168152602001908152602001600020600083815260200190815260200160002054905092915050565b6109b061170b565b73ffffffffffffffffffffffffffffffffffffffff166109ce610dc8565b73ffffffffffffffffffffffffffffffffffffffff1614610a24576040517f08c379a0000000000000000000000000000000000000000000000000000000008152600401610a1b90612c7b565b60405180910390fd5b6000600d60008373ffffffffffffffffffffffffffffffffffffffff1673ffffffffffffffffffffffffffffffffffffffff16815260200190815260200160002060006101000a81548160ff02191690831515021790555050565b610a9a838383604051806020016040528060008152506110dc565b505050565b6000610aa9610896565b8210610aea576040517f08c379a0000000000000000000000000000000000000000000000000000000008152600401610ae190612d3b565b60405180910390fd5b60088281548110610b24577f4e487b7100000000000000000000000000000000000000000000000000000000600052603260045260246000fd5b90600052602060002001549050919050565b6000806002600084815260200190815260200160002060009054906101000a900473ffffffffffffffffffffffffffffffffffffffff169050600073ffffffffffffffffffffffffffffffffffffffff168173ffffffffffffffffffffffffffffffffffffffff161415610bdf576040517f08c379a0000000000000000000000000000000000000000000000000000000008152600401610bd690612c1b565b60405180910390fd5b80915050919050565b600b6020528060005260406000206000915090508054610c0790612f75565b80601f0160208091040260200160405190810160405280929190818152602001828054610c3390612f75565b8015610c805780601f10610c5557610100808354040283529160200191610c80565b820191906000526020600020905b815481529060010190602001808311610c6357829003601f168201915b505050505081565b60008073ffffffffffffffffffffffffffffffffffffffff168273ffffffffffffffffffffffffffffffffffffffff161415610cf9576040517f08c379a0000000000000000000000000000000000000000000000000000000008152600401610cf090612bfb565b60405180910390fd5b600360008373ffffffffffffffffffffffffffffffffffffffff1673ffffffffffffffffffffffffffffffffffffffff168152602001908152602001600020549050919050565b610d4861170b565b73ffffffffffffffffffffffffffffffffffffffff16610d66610dc8565b73ffffffffffffffffffffffffffffffffffffffff1614610dbc576040517f08c379a0000000000000000000000000000000000000000000000000000000008152600401610db390612c7b565b60405180910390fd5b610dc66000611b06565b565b6000600a60009054906101000a900473ffffffffffffffffffffffffffffffffffffffff16905090565b606060018054610e0190612f75565b80601f0160208091040260200160405190810160405280929190818152602001828054610e2d90612f75565b8015610e7a5780601f10610e4f57610100808354040283529160200191610e7a565b820191906000526020600020905b815481529060010190602001808311610e5d57829003601f168201915b5050505050905090565b610e8c61170b565b73ffffffffffffffffffffffffffffffffffffffff16610eaa610dc8565b73ffffffffffffffffffffffffffffffffffffffff1614610f00576040517f08c379a0000000000000000000000000000000000000000000000000000000008152600401610ef790612c7b565b60405180910390fd5b6001600d60008373ffffffffffffffffffffffffffffffffffffffff1673ffffffffffffffffffffffffffffffffffffffff16815260200190815260200160002060006101000a81548160ff02191690831515021790555050565b610f6361170b565b73ffffffffffffffffffffffffffffffffffffffff168273ffffffffffffffffffffffffffffffffffffffff161415610fd1576040517f08c379a0000000000000000000000000000000000000000000000000000000008152600401610fc890612b9b565b60405180910390fd5b8060056000610fde61170b565b73ffffffffffffffffffffffffffffffffffffffff1673ffffffffffffffffffffffffffffffffffffffff16815260200190815260200160002060008473ffffffffffffffffffffffffffffffffffffffff1673ffffffffffffffffffffffffffffffffffffffff16815260200190815260200160002060006101000a81548160ff0219169083151502179055508173ffffffffffffffffffffffffffffffffffffffff1661108b61170b565b73ffffffffffffffffffffffffffffffffffffffff167f17307eab39ab6107e8899845ad3d59bd9653f200f220920489ca2b5937696c31836040516110d09190612abe565b60405180910390a35050565b6110ed6110e761170b565b836117cc565b61112c576040517f08c379a000000000000000000000000000000000000000000000000000000000815260040161112390612d1b565b60405180910390fd5b61113884848484611bcc565b50505050565b60606111498261169f565b611188576040517f08c379a000000000000000000000000000000000000000000000000000000000815260040161117f90612cbb565b60405180910390fd5b600b600083815260200190815260200160002080546111a690612f75565b80601f01602080910402602001604051908101604052809291908181526020018280546111d290612f75565b801561121f5780601f106111f45761010080835404028352916020019161121f565b820191906000526020600020905b81548152906001019060200180831161120257829003601f168201915b50505050509050919050565b600c6020528060005260406000206000915090505481565b6000600560008473ffffffffffffffffffffffffffffffffffffffff1673ffffffffffffffffffffffffffffffffffffffff16815260200190815260200160002060008373ffffffffffffffffffffffffffffffffffffffff1673ffffffffffffffffffffffffffffffffffffffff16815260200190815260200160002060009054906101000a900460ff16905092915050565b6112df61170b565b73ffffffffffffffffffffffffffffffffffffffff166112fd610dc8565b73ffffffffffffffffffffffffffffffffffffffff1614611353576040517f08c379a000000000000000000000000000000000000000000000000000000000815260040161134a90612c7b565b60405180910390fd5b600073ffffffffffffffffffffffffffffffffffffffff168173ffffffffffffffffffffffffffffffffffffffff1614156113c3576040517f08c379a00000000000000000000000000000000000000000000000000000000081526004016113ba90612b3b565b60405180910390fd5b6113cc81611b06565b50565b600d6020528060005260406000206000915054906101000a900460ff1681565b60007f80ac58cd000000000000000000000000000000000000000000000000000000007bffffffffffffffffffffffffffffffffffffffffffffffffffffffff1916827bffffffffffffffffffffffffffffffffffffffffffffffffffffffff191614806114ba57507f5b5e139f000000000000000000000000000000000000000000000000000000007bffffffffffffffffffffffffffffffffffffffffffffffffffffffff1916827bffffffffffffffffffffffffffffffffffffffffffffffffffffffff1916145b806114ca57506114c982611c28565b5b9050919050565b600073ffffffffffffffffffffffffffffffffffffffff168273ffffffffffffffffffffffffffffffffffffffff161415611541576040517f08c379a000000000000000000000000000000000000000000000000000000000815260040161153890612c3b565b60405180910390fd5b61154a8161169f565b1561158a576040517f08c379a000000000000000000000000000000000000000000000000000000000815260040161158190612b5b565b60405180910390fd5b61159660008383611c92565b6001600360008473ffffffffffffffffffffffffffffffffffffffff1673ffffffffffffffffffffffffffffffffffffffff16815260200190815260200160002060008282546115e69190612e35565b92505081905550816002600083815260200190815260200160002060006101000a81548173ffffffffffffffffffffffffffffffffffffffff021916908373ffffffffffffffffffffffffffffffffffffffff160217905550808273ffffffffffffffffffffffffffffffffffffffff16600073ffffffffffffffffffffffffffffffffffffffff167fddf252ad1be2c89b69c2b068fc378daa952ba7f163c4a11628f55a4df523b3ef60405160405180910390a45050565b60008073ffffffffffffffffffffffffffffffffffffffff166002600084815260200190815260200160002060009054906101000a900473ffffffffffffffffffffffffffffffffffffffff1673ffffffffffffffffffffffffffffffffffffffff1614159050919050565b600033905090565b816004600083815260200190815260200160002060006101000a81548173ffffffffffffffffffffffffffffffffffffffff021916908373ffffffffffffffffffffffffffffffffffffffff160217905550808273ffffffffffffffffffffffffffffffffffffffff1661178683610b36565b73ffffffffffffffffffffffffffffffffffffffff167f8c5be1e5ebec7d5bd14f71427d1e84f3dd0314c0f7b2291e5b200ac8c7c3b92560405160405180910390a45050565b60006117d78261169f565b611816576040517f08c379a000000000000000000000000000000000000000000000000000000000815260040161180d90612bbb565b60405180910390fd5b600061182183610b36565b90508073ffffffffffffffffffffffffffffffffffffffff168473ffffffffffffffffffffffffffffffffffffffff16148061189057508373ffffffffffffffffffffffffffffffffffffffff16611878846106f9565b73ffffffffffffffffffffffffffffffffffffffff16145b806118a157506118a08185611243565b5b91505092915050565b8273ffffffffffffffffffffffffffffffffffffffff166118ca82610b36565b73ffffffffffffffffffffffffffffffffffffffff1614611920576040517f08c379a000000000000000000000000000000000000000000000000000000000815260040161191790612c9b565b60405180910390fd5b600073ffffffffffffffffffffffffffffffffffffffff168273ffffffffffffffffffffffffffffffffffffffff161415611990576040517f08c379a000000000000000000000000000000000000000000000000000000000815260040161198790612b7b565b60405180910390fd5b61199b838383611c92565b6119a6600082611713565b6001600360008573ffffffffffffffffffffffffffffffffffffffff1673ffffffffffffffffffffffffffffffffffffffff16815260200190815260200160002060008282546119f69190612e8b565b925050819055506001600360008473ffffffffffffffffffffffffffffffffffffffff1673ffffffffffffffffffffffffffffffffffffffff1681526020019081526020016000206000828254611a4d9190612e35565b92505081905550816002600083815260200190815260200160002060006101000a81548173ffffffffffffffffffffffffffffffffffffffff021916908373ffffffffffffffffffffffffffffffffffffffff160217905550808273ffffffffffffffffffffffffffffffffffffffff168473ffffffffffffffffffffffffffffffffffffffff167fddf252ad1be2c89b69c2b068fc378daa952ba7f163c4a11628f55a4df523b3ef60405160405180910390a4505050565b6000600a60009054906101000a900473ffffffffffffffffffffffffffffffffffffffff16905081600a60006101000a81548173ffffffffffffffffffffffffffffffffffffffff021916908373ffffffffffffffffffffffffffffffffffffffff1602179055508173ffffffffffffffffffffffffffffffffffffffff168173ffffffffffffffffffffffffffffffffffffffff167f8be0079c531659141344cd1fd0a4f28419497f9722a3daafe3b4186f6b6457e060405160405180910390a35050565b611bd78484846118aa565b611be384848484611da6565b611c22576040517f08c379a0000000000000000000000000000000000000000000000000000000008152600401611c1990612b1b565b60405180910390fd5b50505050565b60007f01ffc9a7000000000000000000000000000000000000000000000000000000007bffffffffffffffffffffffffffffffffffffffffffffffffffffffff1916827bffffffffffffffffffffffffffffffffffffffffffffffffffffffff1916149050919050565b611c9d838383611f3d565b600073ffffffffffffffffffffffffffffffffffffffff168373ffffffffffffffffffffffffffffffffffffffff161415611ce057611cdb81611f42565b611d1f565b8173ffffffffffffffffffffffffffffffffffffffff168373ffffffffffffffffffffffffffffffffffffffff1614611d1e57611d1d8382611f8b565b5b5b600073ffffffffffffffffffffffffffffffffffffffff168273ffffffffffffffffffffffffffffffffffffffff161415611d6257611d5d816120f8565b611da1565b8273ffffffffffffffffffffffffffffffffffffffff168273ffffffffffffffffffffffffffffffffffffffff1614611da057611d9f828261223b565b5b5b505050565b6000611dc78473ffffffffffffffffffffffffffffffffffffffff166122ba565b15611f30578373ffffffffffffffffffffffffffffffffffffffff1663150b7a02611df061170b565b8786866040518563ffffffff1660e01b8152600401611e129493929190612a72565b602060405180830381600087803b158015611e2c57600080fd5b505af1925050508015611e5d57506040513d601f19601f82011682018060405250810190611e5a9190612679565b60015b611ee0573d8060008114611e8d576040519150601f19603f3d011682016040523d82523d6000602084013e611e92565b606091505b50600081511415611ed8576040517f08c379a0000000000000000000000000000000000000000000000000000000008152600401611ecf90612b1b565b60405180910390fd5b805181602001fd5b63150b7a0260e01b7bffffffffffffffffffffffffffffffffffffffffffffffffffffffff1916817bffffffffffffffffffffffffffffffffffffffffffffffffffffffff191614915050611f35565b600190505b949350505050565b505050565b6008805490506009600083815260200190815260200160002081905550600881908060018154018082558091505060019003906000526020600020016000909190919091505550565b60006001611f9884610c88565b611fa29190612e8b565b9050600060076000848152602001908152602001600020549050818114612087576000600660008673ffffffffffffffffffffffffffffffffffffffff1673ffffffffffffffffffffffffffffffffffffffff168152602001908152602001600020600084815260200190815260200160002054905080600660008773ffffffffffffffffffffffffffffffffffffffff1673ffffffffffffffffffffffffffffffffffffffff168152602001908152602001600020600084815260200190815260200160002081905550816007600083815260200190815260200160002081905550505b6007600084815260200190815260200160002060009055600660008573ffffffffffffffffffffffffffffffffffffffff1673ffffffffffffffffffffffffffffffffffffffff16815260200190815260200160002060008381526020019081526020016000206000905550505050565b6000600160088054905061210c9190612e8b565b9050600060096000848152602001908152602001600020549050600060088381548110612162577f4e487b7100000000000000000000000000000000000000000000000000000000600052603260045260246000fd5b9060005260206000200154905080600883815481106121aa577f4e487b7100000000000000000000000000000000000000000000000000000000600052603260045260246000fd5b90600052602060002001819055508160096000838152602001908152602001600020819055506009600085815260200190815260200160002060009055600880548061221f577f4e487b7100000000000000000000000000000000000000000000000000000000600052603160045260246000fd5b6001900381819060005260206000200160009055905550505050565b600061224683610c88565b905081600660008573ffffffffffffffffffffffffffffffffffffffff1673ffffffffffffffffffffffffffffffffffffffff168152602001908152602001600020600083815260200190815260200160002081905550806007600084815260200190815260200160002081905550505050565b600080823b905060008111915050919050565b8280546122d990612f75565b90600052602060002090601f0160209004810192826122fb5760008555612342565b82601f1061231457805160ff1916838001178555612342565b82800160010185558215612342579182015b82811115612341578251825591602001919060010190612326565b5b50905061234f9190612353565b5090565b5b8082111561236c576000816000905550600101612354565b5090565b600061238361237e84612d9b565b612d76565b90508281526020810184848401111561239b57600080fd5b6123a6848285612f33565b509392505050565b60006123c16123bc84612dcc565b612d76565b9050828152602081018484840111156123d957600080fd5b6123e4848285612f33565b509392505050565b6000813590506123fb81613595565b92915050565b600081359050612410816135ac565b92915050565b600081359050612425816135c3565b92915050565b60008151905061243a816135c3565b92915050565b600082601f83011261245157600080fd5b8135612461848260208601612370565b91505092915050565b600082601f83011261247b57600080fd5b813561248b8482602086016123ae565b91505092915050565b6000813590506124a3816135da565b92915050565b6000602082840312156124bb57600080fd5b60006124c9848285016123ec565b91505092915050565b600080604083850312156124e557600080fd5b60006124f3858286016123ec565b9250506020612504858286016123ec565b9150509250929050565b60008060006060848603121561252357600080fd5b6000612531868287016123ec565b9350506020612542868287016123ec565b925050604061255386828701612494565b9150509250925092565b6000806000806080858703121561257357600080fd5b6000612581878288016123ec565b9450506020612592878288016123ec565b93505060406125a387828801612494565b925050606085013567ffffffffffffffff8111156125c057600080fd5b6125cc87828801612440565b91505092959194509250565b600080604083850312156125eb57600080fd5b60006125f9858286016123ec565b925050602061260a85828601612401565b9150509250929050565b6000806040838503121561262757600080fd5b6000612635858286016123ec565b925050602061264685828601612494565b9150509250929050565b60006020828403121561266257600080fd5b600061267084828501612416565b91505092915050565b60006020828403121561268b57600080fd5b60006126998482850161242b565b91505092915050565b600080604083850312156126b557600080fd5b600083013567ffffffffffffffff8111156126cf57600080fd5b6126db8582860161246a565b92505060206126ec85828601612494565b9150509250929050565b60006020828403121561270857600080fd5b600061271684828501612494565b91505092915050565b61272881612ebf565b82525050565b61273781612ed1565b82525050565b600061274882612dfd565b6127528185612e13565b9350612762818560208601612f42565b61276b81613065565b840191505092915050565b600061278182612e08565b61278b8185612e24565b935061279b818560208601612f42565b6127a481613065565b840191505092915050565b60006127bc602b83612e24565b91506127c782613076565b604082019050919050565b60006127df603283612e24565b91506127ea826130c5565b604082019050919050565b6000612802602683612e24565b915061280d82613114565b604082019050919050565b6000612825601c83612e24565b915061283082613163565b602082019050919050565b6000612848602483612e24565b91506128538261318c565b604082019050919050565b600061286b601983612e24565b9150612876826131db565b602082019050919050565b600061288e602c83612e24565b915061289982613204565b604082019050919050565b60006128b1603883612e24565b91506128bc82613253565b604082019050919050565b60006128d4602a83612e24565b91506128df826132a2565b604082019050919050565b60006128f7602983612e24565b9150612902826132f1565b604082019050919050565b600061291a602083612e24565b915061292582613340565b602082019050919050565b600061293d602c83612e24565b915061294882613369565b604082019050919050565b6000612960602083612e24565b915061296b826133b8565b602082019050919050565b6000612983602983612e24565b915061298e826133e1565b604082019050919050565b60006129a6602f83612e24565b91506129b182613430565b604082019050919050565b60006129c9602183612e24565b91506129d48261347f565b604082019050919050565b60006129ec600a83612e24565b91506129f7826134ce565b602082019050919050565b6000612a0f603183612e24565b9150612a1a826134f7565b604082019050919050565b6000612a32602c83612e24565b9150612a3d82613546565b604082019050919050565b612a5181612f29565b82525050565b6000602082019050612a6c600083018461271f565b92915050565b6000608082019050612a87600083018761271f565b612a94602083018661271f565b612aa16040830185612a48565b8181036060830152612ab3818461273d565b905095945050505050565b6000602082019050612ad3600083018461272e565b92915050565b60006020820190508181036000830152612af38184612776565b905092915050565b60006020820190508181036000830152612b14816127af565b9050919050565b60006020820190508181036000830152612b34816127d2565b9050919050565b60006020820190508181036000830152612b54816127f5565b9050919050565b60006020820190508181036000830152612b7481612818565b9050919050565b60006020820190508181036000830152612b948161283b565b9050919050565b60006020820190508181036000830152612bb48161285e565b9050919050565b60006020820190508181036000830152612bd481612881565b9050919050565b60006020820190508181036000830152612bf4816128a4565b9050919050565b60006020820190508181036000830152612c14816128c7565b9050919050565b60006020820190508181036000830152612c34816128ea565b9050919050565b60006020820190508181036000830152612c548161290d565b9050919050565b60006020820190508181036000830152612c7481612930565b9050919050565b60006020820190508181036000830152612c9481612953565b9050919050565b60006020820190508181036000830152612cb481612976565b9050919050565b60006020820190508181036000830152612cd481612999565b9050919050565b60006020820190508181036000830152612cf4816129bc565b9050919050565b60006020820190508181036000830152612d14816129df565b9050919050565b60006020820190508181036000830152612d3481612a02565b9050919050565b60006020820190508181036000830152612d5481612a25565b9050919050565b6000602082019050612d706000830184612a48565b92915050565b6000612d80612d91565b9050612d8c8282612fa7565b919050565b6000604051905090565b600067ffffffffffffffff821115612db657612db5613036565b5b612dbf82613065565b9050602081019050919050565b600067ffffffffffffffff821115612de757612de6613036565b5b612df082613065565b9050602081019050919050565b600081519050919050565b600081519050919050565b600082825260208201905092915050565b600082825260208201905092915050565b6000612e4082612f29565b9150612e4b83612f29565b9250827fffffffffffffffffffffffffffffffffffffffffffffffffffffffffffffffff03821115612e8057612e7f612fd8565b5b828201905092915050565b6000612e9682612f29565b9150612ea183612f29565b925082821015612eb457612eb3612fd8565b5b828203905092915050565b6000612eca82612f09565b9050919050565b60008115159050919050565b60007fffffffff0000000000000000000000000000000000000000000000000000000082169050919050565b600073ffffffffffffffffffffffffffffffffffffffff82169050919050565b6000819050919050565b82818337600083830152505050565b60005b83811015612f60578082015181840152602081019050612f45565b83811115612f6f576000848401525b50505050565b60006002820490506001821680612f8d57607f821691505b60208210811415612fa157612fa0613007565b5b50919050565b612fb082613065565b810181811067ffffffffffffffff82111715612fcf57612fce613036565b5b80604052505050565b7f4e487b7100000000000000000000000000000000000000000000000000000000600052601160045260246000fd5b7f4e487b7100000000000000000000000000000000000000000000000000000000600052602260045260246000fd5b7f4e487b7100000000000000000000000000000000000000000000000000000000600052604160045260246000fd5b6000601f19601f8301169050919050565b7f455243373231456e756d657261626c653a206f776e657220696e646578206f7560008201527f74206f6620626f756e6473000000000000000000000000000000000000000000602082015250565b7f4552433732313a207472616e7366657220746f206e6f6e20455243373231526560008201527f63656976657220696d706c656d656e7465720000000000000000000000000000602082015250565b7f4f776e61626c653a206e6577206f776e657220697320746865207a65726f206160008201527f6464726573730000000000000000000000000000000000000000000000000000602082015250565b7f4552433732313a20746f6b656e20616c7265616479206d696e74656400000000600082015250565b7f4552433732313a207472616e7366657220746f20746865207a65726f2061646460008201527f7265737300000000000000000000000000000000000000000000000000000000602082015250565b7f4552433732313a20617070726f766520746f2063616c6c657200000000000000600082015250565b7f4552433732313a206f70657261746f7220717565727920666f72206e6f6e657860008201527f697374656e7420746f6b656e0000000000000000000000000000000000000000602082015250565b7f4552433732313a20617070726f76652063616c6c6572206973206e6f74206f7760008201527f6e6572206e6f7220617070726f76656420666f7220616c6c0000000000000000602082015250565b7f4552433732313a2062616c616e636520717565727920666f7220746865207a6560008201527f726f206164647265737300000000000000000000000000000000000000000000602082015250565b7f4552433732313a206f776e657220717565727920666f72206e6f6e657869737460008201527f656e7420746f6b656e0000000000000000000000000000000000000000000000602082015250565b7f4552433732313a206d696e7420746f20746865207a65726f2061646472657373600082015250565b7f4552433732313a20617070726f76656420717565727920666f72206e6f6e657860008201527f697374656e7420746f6b656e0000000000000000000000000000000000000000602082015250565b7f4f776e61626c653a2063616c6c6572206973206e6f7420746865206f776e6572600082015250565b7f4552433732313a207472616e73666572206f6620746f6b656e2074686174206960008201527f73206e6f74206f776e0000000000000000000000000000000000000000000000602082015250565b7f4552433732314d657461646174613a2055524920717565727920666f72206e6f60008201527f6e6578697374656e7420746f6b656e0000000000000000000000000000000000602082015250565b7f4552433732313a20617070726f76616c20746f2063757272656e74206f776e6560008201527f7200000000000000000000000000000000000000000000000000000000000000602082015250565b7f6e6f74206d696e74657200000000000000000000000000000000000000000000600082015250565b7f4552433732313a207472616e736665722063616c6c6572206973206e6f74206f60008201527f776e6572206e6f7220617070726f766564000000000000000000000000000000602082015250565b7f455243373231456e756d657261626c653a20676c6f62616c20696e646578206f60008201527f7574206f6620626f756e64730000000000000000000000000000000000000000602082015250565b61359e81612ebf565b81146135a957600080fd5b50565b6135b581612ed1565b81146135c057600080fd5b50565b6135cc81612edd565b81146135d757600080fd5b50565b6135e381612f29565b81146135ee57600080fd5b5056fea2646970667358221220f9ab82a04795cea54153eee2aea703be5d07e9b839b1d9bab45b21a163b68e7464736f6c63430008040033",
  "devdoc": {
    "kind": "dev",
    "methods": {
      "approve(address,uint256)": {
        "details": "See {IERC721-approve}."
      },
      "balanceOf(address)": {
        "details": "See {IERC721-balanceOf}."
      },
      "getApproved(uint256)": {
        "details": "See {IERC721-getApproved}."
      },
      "isApprovedForAll(address,address)": {
        "details": "See {IERC721-isApprovedForAll}."
      },
      "name()": {
        "details": "See {IERC721Metadata-name}."
      },
      "owner()": {
        "details": "Returns the address of the current owner."
      },
      "ownerOf(uint256)": {
        "details": "See {IERC721-ownerOf}."
      },
      "renounceOwnership()": {
        "details": "Leaves the contract without owner. It will not be possible to call `onlyOwner` functions anymore. Can only be called by the current owner. NOTE: Renouncing ownership will leave the contract without an owner, thereby removing any functionality that is only available to the owner."
      },
      "safeTransferFrom(address,address,uint256)": {
        "details": "See {IERC721-safeTransferFrom}."
      },
      "safeTransferFrom(address,address,uint256,bytes)": {
        "details": "See {IERC721-safeTransferFrom}."
      },
      "setApprovalForAll(address,bool)": {
        "details": "See {IERC721-setApprovalForAll}."
      },
      "supportsInterface(bytes4)": {
        "details": "See {IERC165-supportsInterface}."
      },
      "symbol()": {
        "details": "See {IERC721Metadata-symbol}."
      },
      "tokenByIndex(uint256)": {
        "details": "See {IERC721Enumerable-tokenByIndex}."
      },
      "tokenOfOwnerByIndex(address,uint256)": {
        "details": "See {IERC721Enumerable-tokenOfOwnerByIndex}."
      },
      "tokenURI(uint256)": {
        "details": "See {IERC721Metadata-tokenURI}."
      },
      "totalSupply()": {
        "details": "See {IERC721Enumerable-totalSupply}."
      },
      "transferFrom(address,address,uint256)": {
        "details": "See {IERC721-transferFrom}."
      },
      "transferOwnership(address)": {
        "details": "Transfers ownership of the contract to a new account (`newOwner`). Can only be called by the current owner."
      }
    },
    "version": 1
  },
  "userdoc": {
    "kind": "user",
    "methods": {},
    "version": 1
  },
  "storageLayout": {
    "storage": [
      {
        "astId": 129,
        "contract": "contracts/CZodiacNFT.sol:CZodiacNFT",
        "label": "_name",
        "offset": 0,
        "slot": "0",
        "type": "t_string_storage"
      },
      {
        "astId": 131,
        "contract": "contracts/CZodiacNFT.sol:CZodiacNFT",
        "label": "_symbol",
        "offset": 0,
        "slot": "1",
        "type": "t_string_storage"
      },
      {
        "astId": 135,
        "contract": "contracts/CZodiacNFT.sol:CZodiacNFT",
        "label": "_owners",
        "offset": 0,
        "slot": "2",
        "type": "t_mapping(t_uint256,t_address)"
      },
      {
        "astId": 139,
        "contract": "contracts/CZodiacNFT.sol:CZodiacNFT",
        "label": "_balances",
        "offset": 0,
        "slot": "3",
        "type": "t_mapping(t_address,t_uint256)"
      },
      {
        "astId": 143,
        "contract": "contracts/CZodiacNFT.sol:CZodiacNFT",
        "label": "_tokenApprovals",
        "offset": 0,
        "slot": "4",
        "type": "t_mapping(t_uint256,t_address)"
      },
      {
        "astId": 149,
        "contract": "contracts/CZodiacNFT.sol:CZodiacNFT",
        "label": "_operatorApprovals",
        "offset": 0,
        "slot": "5",
        "type": "t_mapping(t_address,t_mapping(t_address,t_bool))"
      },
      {
        "astId": 1068,
        "contract": "contracts/CZodiacNFT.sol:CZodiacNFT",
        "label": "_ownedTokens",
        "offset": 0,
        "slot": "6",
        "type": "t_mapping(t_address,t_mapping(t_uint256,t_uint256))"
      },
      {
        "astId": 1072,
        "contract": "contracts/CZodiacNFT.sol:CZodiacNFT",
        "label": "_ownedTokensIndex",
        "offset": 0,
        "slot": "7",
        "type": "t_mapping(t_uint256,t_uint256)"
      },
      {
        "astId": 1075,
        "contract": "contracts/CZodiacNFT.sol:CZodiacNFT",
        "label": "_allTokens",
        "offset": 0,
        "slot": "8",
        "type": "t_array(t_uint256)dyn_storage"
      },
      {
        "astId": 1079,
        "contract": "contracts/CZodiacNFT.sol:CZodiacNFT",
        "label": "_allTokensIndex",
        "offset": 0,
        "slot": "9",
        "type": "t_mapping(t_uint256,t_uint256)"
      },
      {
        "astId": 7,
        "contract": "contracts/CZodiacNFT.sol:CZodiacNFT",
        "label": "_owner",
        "offset": 0,
        "slot": "10",
        "type": "t_address"
      },
      {
        "astId": 2019,
        "contract": "contracts/CZodiacNFT.sol:CZodiacNFT",
        "label": "tokenURIs",
        "offset": 0,
        "slot": "11",
        "type": "t_mapping(t_uint256,t_string_storage)"
      },
      {
        "astId": 2023,
        "contract": "contracts/CZodiacNFT.sol:CZodiacNFT",
        "label": "zodiacIds",
        "offset": 0,
        "slot": "12",
        "type": "t_mapping(t_uint256,t_uint256)"
      },
      {
        "astId": 2027,
        "contract": "contracts/CZodiacNFT.sol:CZodiacNFT",
        "label": "minters",
        "offset": 0,
        "slot": "13",
        "type": "t_mapping(t_address,t_bool)"
      }
    ],
    "types": {
      "t_address": {
        "encoding": "inplace",
        "label": "address",
        "numberOfBytes": "20"
      },
      "t_array(t_uint256)dyn_storage": {
        "base": "t_uint256",
        "encoding": "dynamic_array",
        "label": "uint256[]",
        "numberOfBytes": "32"
      },
      "t_bool": {
        "encoding": "inplace",
        "label": "bool",
        "numberOfBytes": "1"
      },
      "t_mapping(t_address,t_bool)": {
        "encoding": "mapping",
        "key": "t_address",
        "label": "mapping(address => bool)",
        "numberOfBytes": "32",
        "value": "t_bool"
      },
      "t_mapping(t_address,t_mapping(t_address,t_bool))": {
        "encoding": "mapping",
        "key": "t_address",
        "label": "mapping(address => mapping(address => bool))",
        "numberOfBytes": "32",
        "value": "t_mapping(t_address,t_bool)"
      },
      "t_mapping(t_address,t_mapping(t_uint256,t_uint256))": {
        "encoding": "mapping",
        "key": "t_address",
        "label": "mapping(address => mapping(uint256 => uint256))",
        "numberOfBytes": "32",
        "value": "t_mapping(t_uint256,t_uint256)"
      },
      "t_mapping(t_address,t_uint256)": {
        "encoding": "mapping",
        "key": "t_address",
        "label": "mapping(address => uint256)",
        "numberOfBytes": "32",
        "value": "t_uint256"
      },
      "t_mapping(t_uint256,t_address)": {
        "encoding": "mapping",
        "key": "t_uint256",
        "label": "mapping(uint256 => address)",
        "numberOfBytes": "32",
        "value": "t_address"
      },
      "t_mapping(t_uint256,t_string_storage)": {
        "encoding": "mapping",
        "key": "t_uint256",
        "label": "mapping(uint256 => string)",
        "numberOfBytes": "32",
        "value": "t_string_storage"
      },
      "t_mapping(t_uint256,t_uint256)": {
        "encoding": "mapping",
        "key": "t_uint256",
        "label": "mapping(uint256 => uint256)",
        "numberOfBytes": "32",
        "value": "t_uint256"
      },
      "t_string_storage": {
        "encoding": "bytes",
        "label": "string",
        "numberOfBytes": "32"
      },
      "t_uint256": {
        "encoding": "inplace",
        "label": "uint256",
        "numberOfBytes": "32"
      }
    }
  }
}